:100000000C9438090C9455090C9455090C94550915
:100010000C9455090C9455090C9455090C945509E8
:100020000C9455090C9455090C9455090C945509D8
:100030000C9455090C944B140C9455090C945509C7
:100040000C9455090C9455090C9455090C945509B8
:100050000C9455090C9455090C9455090C945509A8
:100060000C9455090C945509080800000000000084
:10007000000000003E41554155493E003E7F6B7FE8
:100080006B773E0022777F7F3E1C0800081C3E7F76
:100090003E1C0800081C2A7F2A081C00081C3E7F02
:1000A0003E081C00001C3E3E3E1C00FFFFE3C1C199
:1000B000C1E3FF00001C2222221C00FFFFE3DDDD64
:1000C000DDE3FF000F03053948483000083E081CF7
:1000D00022221C0018141010307060000F19111328
:1000E00037766000082A1C771C2A080060787E7F1B
:1000F0007E786000030F3F7F3F0F0300081C2A0833
:100100002A1C080066666666006666003F65653DF7
:10011000050505000C324824124C30000000000098
:100120007F7F7F00081C2A082A1C3E00081C3E7F97
:100130001C1C1C001C1C1C7F3E1C0800080C7E7F25
:100140007E0C080008183F7F3F1808000000707000
:10015000707F7F000014227F22140000081C1C3EC8
:100160003E7F7F007F7F3E3E1C1C08000000000099
:1001700000000000183C3C18180018003636140027
:100180000000000036367F367F363600081E201C01
:10019000023C080060660C18306606003C663C288D
:1001A00065663F001818183000000000603018180D
:1001B00018306000060C1818180C060000361C7F5A
:1001C0001C3600000008083E08080000000000304F
:1001D000303060000000003C000000000000000023
:1001E0000060600000060C18306000003C666E760F
:1001F00066663C001818381818187E003C66060C15
:1002000030607E003C66061C06663C000C1C2C4CD4
:100210007E0C0C007E607C0606663C003C66607CC2
:1002200066663C007E660C0C181818003C66663C3E
:1002300066663C003C66663E06663C000018180098
:10024000181800000018180018183000060C183094
:10025000180C060000003C003C0000006030180C48
:10026000183060003C66061C1800180038445C58C2
:10027000423C00003C66667E666666007C66667C84
:1002800066667C003C66606060663C007C66666614
:1002900066667C007E60607C60607E007E60607C64
:1002A000606060003C6660606E663C006666667E0C
:1002B000666666003C18181818183C001E0C0C0CDA
:1002C0006C6C3800666C7870786C6600606060609A
:1002D00060607E0063777F6B6363630063737B6F33
:1002E000676363003C66666666663C007C666666BD
:1002F0007C6060003C6666666E3C06007C66667CE0
:10030000786C66003C66603C06663C007E5A1818B5
:10031000181818006666666666663E00666666665B
:10032000663C18006363636B7F7763006363361C0E
:10033000366363006666663C181818007E060C1863
:1003400030607E001E18181818181E000060301843
:100350000C060000781818181818780008142241A4
:10036000000000000000000000007F000C0C0600F0
:100370000000000000003C063E663E006060607CBD
:1003800066667C0000003C6660663C000606063E31
:1003900066663E0000003C667E603C001C363030E5
:1003A0007C303000003E66663E063C006060607C4B
:1003B000666666000018001818183C000C000C0C4B
:1003C0006C6C38006060666C786C660018181818E1
:1003D00018181800000063777F6B6B0000007C7EAC
:1003E0006666660000003C6666663C00007C6666E9
:1003F0007C606000003C6C6C3C0D0F0000007C6673
:100400006660600000003E403C027C000018187EE0
:10041000181818000000666666663E000000006658
:10042000663C18000000636B6B6B3E000000663C8E
:10043000183C6600000066663E063C0000003C0C6E
:1004400018303C000E18183018180E001818180034
:10045000181818007018180C1818700000003A6C62
:1004600000000000081C366341417F0406200000A4
:1004700000000000404040004000A0A0000000003C
:10048000A0E0A0E0A0004060C060C000A0204080CC
:10049000A0002040C0A0E00080800000000040805C
:1004A0008080400080404040800040A0400000002C
:1004B0000040E04000000000008080000000E000FC
:1004C0000000000000008000202040808000E0A0AC
:1004D000A0A0E00040C04040E000E020E080E0005C
:1004E000E020E020E000A0A0E0202000E080E0206C
:1004F000C000C080E0A0E000E02040808000E0A0DC
:10050000E0A0E000E0A0E02060000040004000002B
:1005100000400040800020408040200000E000E0DB
:100520000000804020408000C02040004000E0A04B
:10053000A0E0E000E0A0E0A0A000C0A0E0A0C0001B
:10054000E0808080E000C0A0A0A0C000E080E0804B
:10055000E000E080E0808000E08080A0E000A0A0DB
:10056000E0A0A000E0404040E000202020A0E0000B
:1005700080A0C0C0A00080808080E000A0E0E0A05B
:10058000A000C0A0A0A0A00040A0A0A04000E0A0AB
:10059000E080800040A0A0E06600E0A0C0E0AA00EB
:1005A000E080E020E000E04040404000A0A0A0A0AB
:1005B000E000A0A0A0A04000A0A0E0E0A200A0A0B9
:1005C00040A0A000A0A040404000E0204080E0000B
:1005D000C0808080C000008040202000C04040409B
:1005E000C00040A00000000000000000E0008040CB
:1005F000000000000060A0A060008080C0A0C000DB
:10060000006080806000202060A0600040A0E0804A
:1006100060006040E040400060A06020C00080803A
:10062000C0A0A00040004040400040004040C0004A
:100630008080A0C0A000C0404040E00000A0E0A03A
:10064000A00000C0A0A0A0000040A0A0400000C0EA
:10065000A0C080000060A060200000C0A0808000DA
:1006600000604020600040E04040400000A0A0A0AA
:10067000600000A0A0A0400000A0A0E0A00000A09A
:100680004040A00000A0E020400000E04080E000EA
:100690002040C04022004040004040008040604078
:1006A000800000A040000000E5D8CCC0B6ABA29905
:1006B00090888079726C66605B55514C4844403C30
:1006C000393633302D2A28262422201E1C1B1918C7
:1006D000161514131211100F000000000000000086
:1006E000007C00000000000000001010000000006E
:1006F0000000001428000000000000003539000050
:10070000000000000026A600000000000000345891
:1007100000000000000000000000000000000000D9
:10072000C180001C0000000000A280001400000036
:100730000000948000140000000000888000140075
:1007400000000000A2BCF1D779FBCF0000B6A49254
:1007500051454A490000AAA494D7551A490000A25D
:100760009325948561320000A2884454B9408444A2
:1007700000A2875F569D4074AA00A2835052C540D4
:1007800034A880E3825F8E7DC02451220004800063
:1007900000004819B527FD0000027F90622F8702F4
:1007A0000000087020024C27FC0000027FC00152AC
:1007B00000000000000000000000770000000000C2
:1007C0007700005500000000005500005571C387F8
:1007D0001DFC5500002271C7C71DFE2200000071DC
:1007E000CFE71DCF0000000071DEF79DC7000000BD
:1007F0000071DC77DDC70000000071DC77FDC70009
:1008000000000075DFF77DC7000000007FDFF73DC7
:10081000C7000000007FDC771DC7000000007FDC00
:10082000771DCF000000007BDC771DFE000000007C
:1008300071DC771DFC0000000000000000000000DB
:10084000D4A8C1AAD4A8815503D8000626001D1833
:1008500000660800904400EF232038925000828800
:1008600000418820506418441464940A1AA0460574
:1008700020224344123E48093A48654640910120EF
:100880004901146501123100912900411500409B76
:100890000FC0881AA4081210C40FF94200313200A8
:1008A0004219008C2200F03C01EC000313000E8C76
:1008B000003304004822807791201C495000418871
:1008C00000418800506400441400940A009046716E
:1008D00020222F22125E24090224650620911B206B
:1008E0004925146519123160912900411500409B7A
:1008F0000FE0881A54081218040FF942002D320034
:100900001909001305000E037FFFFFD0100A90287D
:10091000047FFFFFFF0A04FF3078FCFEFCFDD9B91D
:100920007E7E7C7C7C7C7C28003078FCFEFCFDF9A3
:10093000FD7E7E7C7C7C7C143078FCFEFCFCD9B98E
:100940007F7E7C7C7C7C7C483058ACD6ACE5D9B9C9
:100950006E566C547C547C28003058ACD6ACE5F90B
:10096000ED566E547C547C143058ACD6ACE4D9B9F6
:100970006F566C547C547C4800000000000000005E
:10098000001825424020180700E01018240408F041
:1009900001020C1210080700C03824420204F800BB
:1009A0000018254340201F006C9209012151920C30
:1009B00018342C342C342C34000018242418000053
:1009C00000001F20201F00000000FF0000FF0000AB
:1009D0000000F80404F800000000183C3C18000077
:1009E00000001F3F3F1F00000000FFFFFFFF00004F
:1009F0000000F8FCFCF8000000000000000000000F
:100A0000000000000000001800000000001814188A
:100A100000000018141810100018141810101010EE
:100A200014181010101010101010101010101010BA
:100A30003C4AA593C9A593C918245A42A581998116
:100A4000A5819981A58199FF141408081414080838
:100A500014551449552A14000000247E7E3C1800C9
:100A60000000247A723418000000245A422418002E
:100A70000000FFF5FBF50000FF00FF00440011003F
:100A800044001100440011007E8181918981817EA2
:100A90007F807F80AA95807FFF00FF00AA5500FF1E
:100AA000FE01FE01A95501FEFF0303FF001010F730
:100AB000000202FE001010F700000000000000001D
:100AC0000000000000000000000000000000000026
:100AD00000000000000000000718234F599DA7B335
:100AE000B9ADA7B3B9ADA7B30718234C5090A0A0D8
:100AF000A0A0A0A0A0A0A0A07C4457405B405E4066
:100B00007C44D700BB00EE007C44D700BB00EE0065
:100B10007C44D404B404F4045B407A080B080A084B
:100B2000BB00EE00BB00EE00B404BC20A020A0205F
:100B30000B080A080B080A08BB00E30CD010A02021
:100B4000BB008E6017100A08A020A020A020A020C3
:100B5000BB00BA28BB00EE00C03088E474329ACAE9
:100B60006A3A9ACA6A3A9ACAC030886414120A0A5F
:100B70000A0A0A0A0A0A0A0AF001818F8F3E60D81F
:100B80000183CCD9B3D0D801866CD9B3B0DBDD8773
:100B9000EF99BF60DEF1866CD9B600DEFD866CD9B8
:100BA000B300DECD866CD9B300F3F9F66F8F330056
:100BB000000000000000262727272727000000004C
:100BC00000002627272727270000181900002627BE
:100BD0002727272700000000000026272727272790
:100BE000000000000000000026272727000000006A
:100BF000000000002627272700000000000000005A
:100C00000000262700000000000018190000262719
:100C1000001A1B0000000000000026270000000052
:100C20000000000000002627000000000000181946
:100C3000000026270000000000000000000026271A
:100C40000000000000000000262727270000000009
:100C500000000000262727270000000000002627AC
:100C600027272727000000000000262727272727FF
:100C7000000000000000262727272727000000008B
:100C800000002627272727270000181900002627FD
:100C900027272727000000000000262727272727CF
:100CA000000000000000262727272727000000005B
:100CB000000026272727272700000000000000004B
:100CC000000026270000000000000000000026278A
:100CD00000000000002300000000262700000000A4
:100CE000002400000000262700000000002400006F
:100CF0000000262700000000002500000000262735
:100D00000000000000000000000026270000000096
:100D10000000000000002627000000000000181955
:100D200000002627001A1B000000000000002627F4
:100D30000000000000000000000026270000000066
:100D40000000181900002627000000000000000025
:100D500000002627000000000000000000002627F9
:100D60000000000000000000000026270000000036
:100D700000000000002627270000000000000000FF
:100D8000002627270000000000181900002627274A
:100D9000000000000000000000262727001A1B00AA
:100DA00000000000002627270000000000000000CF
:100DB00026272727000000001819000026272727CC
:100DC0000000000000000000262727270000000088
:100DD000000000262727272700000000000000262B
:100DE000272727270000181900002627272727274D
:100DF000000000000000262727272727000000000A
:100E00000000262727272727000000000026272785
:100E100027272727001819000026272727272727F5
:100E200000000000002627272727272700000000B2
:100E30000000000000002627000000000000000065
:100E40000000262700000000000000000000262708
:100E50000000000000000000000026270000000045
:100E60000000000000002627000000000000000035
:100E700000002627000000000000000000002627D8
:100E8000001A1B00000000000000262700000000E0
:100E90000000000000002627000000000000000005
:100EA00000002627000000000000000000002627A8
:100EB00000000000000000000000262700000000E5
:100EC00000000000000026270000000000000000D5
:100ED0000000262700000000000000000000262778
:100EE000001A1B0000000000000026270000000080
:100EF000000000002C2D262700000000000000004C
:100F00003C3D2627000000000000000000002627CE
:100F1000000000000000000000002021000001008F
:100F2000000000000000202100000200000000007E
:100F3000000020210000000000000000000020212F
:100F40000000000000000000000020210000000060
:100F5000000000000000202100000000030000004D
:100F600000002021000000000400000000002021FB
:100F70000000000000000000000020210000000030
:100F8000000000000000202100050000000000001B
:100F900000002021000600000000000000002021C9
:100FA0000000000000000000000020210000000000
:100FB00000000000000020210000000000000000F0
:100FC000000020210000000000000000000020219F
:100FD00000000001000000000000202100000002CD
:100FE00000000000000020210000000000000000C0
:100FF000000020210000000000000000000020216F
:10100000000001000000000000002021000002009C
:10101000000000000000202100000000000000008F
:10102000000020210000000000000000000020213E
:10103000000000000000000000002021000000006F
:10104000000000002222202100000000000000001B
:101050002222202100000003000000002222202183
:101060000000000400000000002220210005000014
:101070000000000000002021000600000000000029
:1010800000002021000000000000000000002021DE
:10109000000000000000000000002021000000000F
:1010A00000000000000020210000000000000000FF
:1010B00000002021000003000000000000002021AB
:1010C00000000400000000002300202100000000B8
:1010D00000000000240020210000000000000000AB
:1010E0002400202100000000000000002500202135
:1010F000000000000000230000002021000000008C
:101100000000240000002021000000000000250055
:10111000000020210000000023000000000020212A
:101120000000000025000000000020210000000059
:10113000000000000000202100000000000000006E
:10114000000020210000000000000000000020211D
:101150000000000000000000000020210005000049
:101160000000000000002021000600000000000038
:1011700000002021000000000000000000222021CB
:10118000000000000000000000002021000000001E
:10119000000000000000202100000000000000000E
:1011A00000002021000000000000000000002021BD
:1011B00000000003000000000022202100000004C5
:1011C00000000000000020210000000000000000DE
:1011D000000020210000000000000000000020218D
:1011E00000000000000000000000202100000000BE
:1011F00000000000000020210000010000000000AD
:10120000000020210000020000000000000020215A
:10121000000000000000000000002021000000008D
:10122000000000000000202100010000000000007C
:10123000000020210002000014303437373720210D
:10124000000000000031353B383A2021000000004A
:1012500000323B3539372021000000001433363A84
:101260003A3A202100000000000000000000202188
:1012700011241FBECFEFD8E0DEBFCDBF11E0A0E04C
:10128000B1E0EAE2F4E402C005900D92A435B107A2
:10129000D9F722E0A4E5B1E001C01D92A735B2075D
:1012A000E1F70E943B0A0C9413220C940000CF93A8
:1012B000DF93209156019091570130915202822F75
:1012C0008695869586958350E32FF0E0E90FF11D12
:1012D00043E0F595E7954A95E1F741E1849FE00DFC
:1012E0001124930F97702770213041F5AE2FB0E095
:1012F000AD57BE4F8C9185FB882780F9911120C096
:10130000C1E1CE0FD0E0CD57DE4F39814A89342B71
:10131000222311F04BA1342B35FD826021110BC02B
:10132000ED5CF0E0ED57FE4F2081992311F09181A3
:10133000292B25FD8460DF91CF91089580E0DBCFDC
:1013400030E0EACF0F931F9380E00E940F1E88E0E9
:1013500080930F0280E00E94A11B08E229E046E092
:1013600060E184E00E94711B28E331E040E460E327
:101370008EE591E00E942B1A1C9B22C08EE591E025
:101380000E943D15615F7F4F8F4F9F4F60935A01C1
:1013900070935B0180935C0190935D018EE591E019
:1013A0000E943D1500915A0110915B0120915C0152
:1013B00030915D01601771078207930778F3DCCFE6
:1013C0008CE080930F0280E00E94A11B08E229E0DC
:1013D00046E060E184E00E94711B28E331E040E4D4
:1013E00060E38EE591E00E942B1A8EE591E01C9956
:1013F00020C00E943D15615F7F4F8F4F9F4F6093CC
:101400005A0170935B0180935C0190935D018EE5BE
:1014100091E00E943D1500915A0110915B012091CD
:101420005C0130915D01601771078207930778F3C3
:10143000DCCF0E943D15615F7F4F8F4F9F4F6093C0
:101440005A0170935B0180935C0190935D018EE57E
:1014500091E00E943D1500915A0110915B0120918D
:101460005C0130915D01601771078207930778F383
:101470001F910F910895CF93DF93CDB7DEB7629799
:101480000FB6F894DEBF0FBECDBF0E94551B20E6FD
:1014900040E861E08EE591E00E94D61466E07BE1D1
:1014A0008EE591E00E947F19249A2C9A8EE591E0B6
:1014B0000E943D1568517C4F8F4F9F4F60935A019A
:1014C00070935B0180935C0190935D018EE591E0E8
:1014D0000E943D1500915A0110915B0120915C0121
:1014E00030915D01601771078207930778F30E94BE
:1014F000431DB12CF12C1A8A412C512C32019E0132
:10150000295F3F4F3D872C8768E670E08EE591E0CC
:101510000E948419109254010E94A2096BE674E0A3
:101520008EE591E00E948419198A188A76E0A72E28
:10153000E4E0DE2E809154010E940F1E1092820181
:10154000E09154018E2F90E0FC01EE0FFF1FE80F99
:10155000F91FE45DFE4F80818F831C828181888723
:101560001D82828189871E828091590181608093CA
:1015700059018091590183FD02C01C9B44C4809194
:10158000590183FF04C081FFE2C01C9941C410913E
:10159000590115FD34C1E0915801EE2309F41AC137
:1015A000E150E0935801F0E0E35BFE4F00915601FB
:1015B0008081081B009356010E94570980FF06C0D6
:1015C00010925801087F085F0093560181FF05C102
:1015D0001F7E1093590190915801911150C082FDC6
:1015E00045C08091590184608093590190915501C3
:1015F000292F30E0F901E35BFE4F408180915601D5
:10160000840F80935601253031051CF49F5F909321
:1016100055019091570140915202282F2695269509
:10162000269530E021503109B1E1B29FF001B39F1E
:10163000F00D1124242F30E0290F311D53E0359592
:1016400027955A95E1F7E20FF31FED57FE4F2081E2
:1016500025FD06C0940F977039F0918195FF04C065
:10166000887F8850809356010E94570982FF07C0E7
:10167000809159018B7F809359011092550180917F
:10168000560190E0813691051CF0E0E1E0935601AF
:101690008091590184FDA3C04E01F4E08F0E911C8E
:1016A0009E01295F3F4F1901CE0101969F878E87CA
:1016B0001FEFAC85BD858A169B0609F4A0C0F40116
:1016C00081914F01319781110DC0D1018C919FEF14
:1016D000980F9F3038F4880F880F880F8083AE856D
:1016E000BF851C932081022E000C330B8091570183
:1016F00090E0281739079CF00796821793077CF033
:10170000809156018C54843150F4AA2041F0AA945F
:1017100008E028ED44E66FEF84E10E945F1BBFEF15
:101720002B1A3B0AEE85FF853196FF87EE87C1CFE6
:101730003F2D3160F32E809159018D7F80935901A7
:101740008EE591E00E943D152B013C0120CF8EE5F6
:1017500091E01C9B35C00E943D15641975098609EE
:101760009709673971058105910520F48F2D807CDB
:1017700009F40DCFAA89A0935901B1E0FB1212C060
:101780008A8982FD1BC0F0905801F11017C096E0C5
:10179000909358010EEF26EF44E66FEF82E20E942D
:1017A0005F1BF5CEA9E0FA1209C004E02CEE44E676
:1017B0006FEF85E20E945F1BBB24B394F12CE7CE50
:1017C0000E943D152B013C0180915901826080935C
:1017D0005901DDCE0E945709F9CE1061FACE8091F1
:1017E0005202811159CFFE0137969081992311F051
:1017F000915090838F5F31968330B9F74DCF8091B0
:1018000052020E94A11B9F2C14E0992029F1892DDE
:10181000807C803429F0803879F0990C990CF5CFD0
:1018200088248394810E08E021E047E068E1812F5D
:101830000E94711B182DF1CF08E021E048E068E11B
:10184000812F0E94711B21E049E068E181E0810F56
:101850001E5F0E94711BE1CF8091590185FFA8C0D6
:101860009E012C5F3F4F490110E0D4012D914D01A5
:10187000222351F004E0C02EEE24E3940CE442E075
:1018800060E085E00E941F1C1F5F133071F780919C
:101890005401813009F06FC080914F0290E0813394
:1018A00091050CF468C0DD2009F414C2A1E4B0E095
:1018B000A81BB90B1A2F110F110F110F8091520293
:1018C000181BBB20E1F08D2D880F880F880F8850E2
:1018D000212F281B409156014A5060915701695FA2
:1018E000EE24E39409E48EE591E00E94AC16BA94EC
:1018F000E889F989E851FC4FF98BE88BDA94F1E03B
:10190000FD15F8F48D2D90E00197212F30E0AC010A
:10191000E3E0440F551FEA95E1F7241B350B20380F
:1019200031057CF4880F880F880F212F281B64E075
:10193000C62E73E0E72E08E441E060E08AE00E94F2
:101940001F1C40E2C42E53E0E52E00E3212F42E0AD
:1019500060E084E00E941F1C21E02D1508F0B8C152
:1019600034E0C32EEE24E39408E4212F41E060E04C
:101970008BE00E941F1C00915601005120E1C22EF5
:10198000EE24E3942091570143E063E082E00E945B
:101990001F1C8091590180FF05C0809182018F5FDB
:1019A00080938201A110A9C18FEF80935401D2C00E
:1019B000FE0134964F011E01F7E02F0E311C9E01EF
:1019C0002F5F3F4F3F872E873B862A868A859B85E0
:1019D0008816990609F476C0D4013C913323B9F0F6
:1019E000EE85FF8520818091590182958170F22FCB
:1019F000F81B8F2F4F2FFF0F550B430F511D37FD36
:101A00005A95141615067CF01C92D1011C92FFEF1A
:101A10008F1A9F0A2FEF221A320A8E859F85019610
:101A20009F878E87D3CF830F8C9340915202082ECD
:101A3000000C990B840F911D97FD079613E0959567
:101A400087951A95E1F7E22F022E000CFF0B3196D5
:101A5000F7FD3196F595E795E80FF91FE45EFD4F28
:101A6000808185FF06C0D4013C932195EE85FF85DA
:101A70002083D4011C91A4E0CA2EEE24E3940CE44C
:101A8000212F42E060E085E00E941F1CBB2009F48A
:101A9000BECFBA9421E0210F409156014A50609187
:101AA0005701695F0EE48EE591E00E94AC16F401E7
:101AB0001082D1011C92E889F989EC59FF4FF98B0A
:101AC000E88BA5CF6091540120914F0230E0E62FC2
:101AD000F0E0EE5CFE4F808190E0409728173907D8
:101AE0005CF48091590184FF03C081E00E94491E8B
:101AF00090E190935701CBCE80915701482F50E051
:101B00004436510504F5613071F4DD2061F02AE0BE
:101B100030E02D193109F3E0220F331FFA95E1F778
:101B20004217530724F48F5F80935701B0CEAA2049
:101B300009F4ADCEAA9408E028ED44E66FEF84E105
:101B40000E945F1BA4CE809159018E7F8093590122
:101B5000109282018889998988579C4E998B888B2D
:101B600000E02CEE44E66FEF80E00E945F1B809166
:101B70005A0190915B01A0915C01B0915D018C597B
:101B80009F4FAF4FBF4F80935A0190935B01A0933B
:101B90005C01B0935D018EE591E00E943D150091DE
:101BA0005A0110915B0120915C0130915D01601739
:101BB00071078207930778F300E02CEE44E66FEF9D
:101BC00084E00E945F1B80915A0190915B01A0917B
:101BD0005C01B0915D018C599F4FAF4FBF4F809317
:101BE0005A0190935B01A0935C01B0935D018EE577
:101BF00091E00E943D1500915A0110915B012091E6
:101C00005C0130915D01601771078207930778F3DB
:101C100000E02CEE44E66FEF87E00E945F1B8091AE
:101C20005A0190915B01A0915C01B0915D018C59CA
:101C30009F4FAF4FBF4F80935A0190935B01A0938A
:101C40005C01B0935D018EE591E00E943D1500912D
:101C50005A0110915B0120915C0130915D01601788
:101C600071078207930778F300E02CEE44E66FEFEC
:101C70008CE00E945F1B80915A0190915B01A091C2
:101C80005C01B0915D0184549D4FAF4FBF4F809375
:101C90005A0190935B01A0935C01B0935D018EE5C6
:101CA00091E00E943D1500915A0110915B01209135
:101CB0005C0130915D01601771078207930778F32B
:101CC00080915401811120CC81E08093540132CC69
:101CD000D11051CE80914F0290E0C89764F08EE20F
:101CE000809318028EE3809319028FE28093290279
:101CF0008FE380932A02D12C3ECEBB2011F11091AC
:101D00005701195F8091560196EF992E980E0E9407
:101D1000DC211C010E94DC2160E670E00E946F1E45
:101D2000082FC10160E870E00E946F1EEE24E3946A
:101D3000282F492D612F8EE591E00E94AC16BA94B0
:101D4000DCCF80E090E0E0915E01F0915F01E80F70
:101D5000F91F1082019680389105A9F72EE331E032
:101D600040E060E08EE591E00E942B1A0AE010E06E
:101D70002889398940E06CE18EE591E00E94F91AEA
:101D800025E431E040E068E48EE591E00E942B1A02
:101D90009A2C1DE0892D90E003979CF182E0882E1B
:101DA0004CE0480D08E021E060E0812F0E94711BAB
:101DB00098181F5F103171F780915A0190915B0163
:101DC000A0915C01B0915D01C296A11DB11D8093EF
:101DD0005A0190935B01A0935C01B0935D018EE585
:101DE00091E00E943D1500915A0110915B012091F4
:101DF0005C0130915D01601771078207930778F3EA
:101E0000B8CB892CCDCF98E2909359018A8BB7CB70
:101E1000FF0CFF0C8EE591E00E943D1564197509D9
:101E200086099709683C71058105910508F480CC05
:101E30005F2D5260F52E7FCC08952091680130917E
:101E4000690180916E0190E028173907C1F4109262
:101E50007A011092790180917401809375018FE964
:101E60009FE0909365018093640180916801909157
:101E7000690101969093690180936801089520910A
:101E800068013091690180916F019091700128176C
:101E9000390759F786E59FE09093650180936401C7
:101EA000E0910A01F0910B010995DFCF20916801C3
:101EB0003091690180916F01909170012817390765
:101EC0003CF18CEA93E09093890080938800109213
:101ED00069011092680180916A0190916B01A09153
:101EE0006C01B0916D010196A11DB11D80936A0135
:101EF00090936B01A0936C01B0936D018091680188
:101F00009091690101969093690180936801089509
:101F100020916801309169018091760190E0281745
:101F2000390761F78AE490E09093890080938800F4
:101F30008DE19FE09093650180936401DFCF309144
:101F40008400209173012A50231B2350F0F72D5F4A
:101F500019F02A9511F001C00000E0916601F0919E
:101F6000670109959091750180917401911134C0B8
:101F700080937501909172012091790130917A01DD
:101F8000290F311D30937A01209379014091680126
:101F9000509169014F5F5F4F90E001966091710130
:101FA000689F9001699F300D112480916E01280F68
:101FB000311D4217530731F48DE19FE09093650185
:101FC00080936401809168019091690101969093DA
:101FD0006901809368010895915090937501D6CF5F
:101FE0000F93CF93DF93E8E6F1E0A785B089C09126
:101FF0007901D0917A018285AC0FBD1F0BB10F77AB
:1020000003C000FA07F90BB90D90000007FA07F9B1
:102010000BB900000000000006FA07F90BB9000038
:102020000000000005FA07F90BB9000000000000ED
:1020300004FA07F90BB900000000000003FA07F9E1
:102040000BB900000000000002FA07F90BB900000C
:102050000000000001FA07F90BB98A9591F600001B
:10206000000000FA07F90BB90BB10F7707FB07F96E
:102070000BB9DF91CF910F9108950F93CF93DF9319
:10208000E8E6F1E0A785B089C0917901D0917A01A5
:102090008285AC0FBD1F0BB10F7703C000FA07F9A3
:1020A0000BB90D9007FA07F90BB90000000006FA0A
:1020B00007F90BB90000000005FA07F90BB9000099
:1020C000000004FA07F90BB90000000003FA07F951
:1020D0000BB90000000002FA07F90BB900008A955D
:1020E00001FA07F90BB9D1F6000000FA07F90BB9AC
:1020F0000BB10F7707FB07F90BB9DF91CF910F9168
:1021000008950F93CF93DF93E8E6F1E0A785B089B8
:10211000C0917901D0917A018285AC0FBD1F02C0B8
:10212000000C0BB80D9000000BB800000000000C74
:102130000BB800000000000C0BB800000000000C01
:102140000BB800000000000C0BB800000000000CF1
:102150000BB80000000C8A950BB811F70000000CBA
:102160000BB80000000000005F98DF91CF910F9145
:1021700008950F93CF93DF93E8E6F1E0A785B08948
:10218000C0917901D0917A018285AC0FBD1F8E314B
:1021900091F08D3151F08C3149F08B3141F08A3121
:1021A00039F0893131F0883129F01CC032C048C083
:1021B0005EC074C08AC00D900BB80000000C0BB854
:1021C0000000000C0BB80000000C0BB80000000C65
:1021D0000BB80000000C0BB80000000C0BB800009E
:1021E000000C0BB80D900BB80000000C0BB80000F1
:1021F000000C0BB80000000C0BB80000000C0BB872
:102200000000000C0BB80000000C0BB80000000C24
:102210000BB80D900BB80000000C0BB80000000CC0
:102220000BB80000000C0BB80000000C0BB800004D
:10223000000C0BB80000000C0BB80000000C0BB831
:102240000D900BB80000000C0BB80000000C0BB890
:102250000000000C0BB80000000C0BB80000000CD4
:102260000BB80000000C0BB80000000C0BB80D9070
:102270000BB80000000C0BB80000000C0BB80000FD
:10228000000C0BB80000000C0BB80000000C0BB8E1
:102290000000000C0BB80000000C0BB80D900BB840
:1022A0000000000C0BB80000000C0BB80000000C84
:1022B0000BB80000000C0BB80000000C0BB80000BD
:1022C000000C0BB80000000C0BB80D900BB8000010
:1022D000000C0BB80000000C0BB80000000C0BB891
:1022E0000000000C0BB80000000C0BB80000000C44
:1022F0000BB80000000C0BB80D900BB80000000CE0
:102300000BB80000000C0BB80000000C0BB800006C
:10231000000C0BB80000000C0BB80000000C0BB850
:102320000000000C0BB80D900BB80000000C0BB8AF
:102330000000000C0BB80000000C0BB80000000CF3
:102340000BB80000000C0BB80000000C0BB800002C
:10235000000C0BB80D900BB80000000C0BB800007F
:10236000000C0BB80000000C0BB80000000C0BB800
:102370000000000C0BB80000000C0BB80000000CB3
:102380000BB80D900BB80000000C0BB80000000C4F
:102390000BB80000000C0BB80000000C0BB80000DC
:1023A000000C0BB80000000C0BB80000000C0BB8C0
:1023B0000D900BB80000000C0BB80000000C0BB81F
:1023C0000000000C0BB80000000C0BB80000000C63
:1023D0000BB80000000C0BB80000000C0BB80D90FF
:1023E0000BB80000000C0BB80000000C0BB800008C
:1023F000000C0BB80000000C0BB80000000C0BB870
:102400000000000C0BB80000000C0BB80D900BB8CE
:102410000000000C0BB80000000C0BB80000000C12
:102420000BB80000000C0BB80000000C0BB800004B
:10243000000C0BB80000000C0BB80D900BB800009E
:10244000000C0BB80000000C0BB80000000C0BB81F
:102450000000000C0BB80000000C0BB80000000CD2
:102460000BB80000000C0BB80D900BB80000000C6E
:102470000BB80000000C0BB80000000C0BB80000FB
:10248000000C0BB80000000C0BB80000000C0BB8DF
:102490000000000C0BB80D900BB80000000C0BB83E
:1024A0000000000C0BB80000000C0BB80000000C82
:1024B0000BB80000000C0BB80000000C0BB80000BB
:1024C000000C0BB80D900BB80000000C0BB800000E
:1024D000000C0BB80000000C0BB80000000C0BB88F
:1024E0000000000C0BB80000000C0BB80000000C42
:1024F0000BB80D900BB80000000C0BB80000000CDE
:102500000BB80000000C0BB80000000C0BB800006A
:10251000000C0BB80000000C0BB80000000C0BB84E
:102520000D900BB80000000C0BB80000000C0BB8AD
:102530000000000C0BB80000000C0BB80000000CF1
:102540000BB80000000C0BB80000000C0BB80D908D
:102550000BB80000000C0BB80000000C0BB800001A
:10256000000C0BB80000000C0BB80000000C0BB8FE
:102570000000000C0BB80000000C0BB80D900BB85D
:102580000000000C0BB80000000C0BB80000000CA1
:102590000BB80000000C0BB80000000C0BB80000DA
:1025A000000C0BB80000000C0BB80D900BB800002D
:1025B000000C0BB80000000C0BB80000000C0BB8AE
:1025C0000000000C0BB80000000C0BB80000000C61
:1025D0000BB80000000C0BB80D900BB80000000CFD
:1025E0000BB80000000C0BB80000000C0BB800008A
:1025F000000C0BB80000000C0BB80000000C0BB86E
:102600000000000C0BB80D900BB80000000C0BB8CC
:102610000000000C0BB80000000C0BB80000000C10
:102620000BB80000000C0BB80000000C0BB8000049
:10263000000C0BB80D900BB80000000C0BB800009C
:10264000000C0BB80000000C0BB80000000C0BB81D
:102650000000000C0BB80000000C0BB80000000CD0
:102660000BB80D900BB80000000C0BB80000000C6C
:102670000BB80000000C0BB80000000C0BB80000F9
:10268000000C0BB80000000C0BB80000000C0BB8DD
:102690000D900BB80000000C0BB80000000C0BB83C
:1026A0000000000C0BB80000000C0BB80000000C80
:1026B0000BB80000000C0BB80000000C0BB80D901C
:1026C0000BB80000000C0BB80000000C0BB80000A9
:1026D000000C0BB80000000C0BB80000000C0BB88D
:1026E0000000000C0BB80000000C0BB80D900BB8EC
:1026F0000000000C0BB80000000C0BB80000000C30
:102700000BB80000000C0BB80000000C0BB8000068
:10271000000C0BB80000000C0BB8000000005F9824
:10272000DF91CF910F910895CF93DF93D82FE62FAC
:102730003093780120937701609372014093710187
:1027400010926A0110926B0110926C0110926D014F
:10275000642F70E0882321F184E091E00E946F1ED5
:10276000615060937401C0917401C093750188E059
:10277000E89F90011124032E000C440B550B60EED2
:1027800072E080E090E00E94831E243009F467C06C
:1027900050F4233011F0273050F489EB90E10CC055
:1027A00088ED90E0DBCF253029F02630A1F780EFCF
:1027B0009FE002C08DE390E19093670180936601F2
:1027C000579A219A5F98299A82EC8093800089E138
:1027D00080938100409171012C2F30E02F5F3F4F9B
:1027E000429FC001439F900D1124DD23D9F197FD35
:1027F0000196959587959195819591098456809339
:102800006E0187EC8093730187E08093760188E303
:1028100091E09093700180936F018FEF93E090931C
:102820008700809386008AE490E0909389008093EB
:10283000880080916F0190917001019690936901D9
:102840008093680186E59FE0909365018093640121
:1028500081E080936F007894DF91CF91089581E8B3
:1028600090E1AACF97FD01969595879591958195D1
:102870009109855780936E018FEB8093730183E0FC
:102880008093760186E091E09093700180936F01D0
:1028900087EF93E0C4CF1F920F920FB60F921124CF
:1028A0002F933F934F935F936F937F938F939F9358
:1028B000AF93BF93EF93FF93E0910C01F0910D0163
:1028C0000995E0916401F09165010995FF91EF91FF
:1028D000BF91AF919F918F917F916F915F914F9138
:1028E0003F912F910F900FBE0F901F9018959091D0
:1028F0007201282F269526952695A0917701B091F3
:1029000078018770413099F4E22FF0E0699FE00D83
:10291000F11D1124EA0FFB1F20E830E002C03595BD
:1029200027958A95E2F78081822B80830895411153
:1029300012C0E22FF0E0699FE00DF11D1124EA0FB3
:10294000FB1F2FE73FEF02C0359527958A95E2F7E9
:1029500080818223EACF30E0699F200D311D112450
:10296000A20FB31F20E830E002C0359527958A9565
:10297000E2F78C9182278C930895FC0112821382D6
:1029800080E090E02091720130917101239F9001CD
:102990001124821793074CF4E0917701F0917801AC
:1029A000E80FF91F10820196EDCF0895FF920F9363
:1029B0001F93CF93DF938C01F62ED22F842F887F25
:1029C00001F1C42FC695C695C695C29FC0011124BA
:1029D0000E946F20F801918380830097A1F01282FA
:1029E00013829C014D2F6C2F8F2D0E949413C801D0
:1029F0000E94BD1480E0DF91CF911F910F91FF9055
:102A0000089581E0F8CF84E0F6CF6130E1F0C8F0BE
:102A1000623091F580E090E0209172013091710177
:102A2000239F900111248217930734F5E0917701D9
:102A3000F0917801E80FF91F2081209520830196FD
:102A4000EBCF0C94BD14FC011282138280E090E065
:102A50004FEF2091720130917101239F9001112459
:102A6000821793074CF4E0917701F0917801E80F19
:102A7000F91F40830196EDCF089580916F019091E9
:102A8000700186309140F9F460916A0170916B0198
:102A900080916C0190916D010E94741F23E333E3D8
:102AA0004EE752E40E94022020E030E043E853E485
:102AB0000E94022020E030E04AE754E40E94D31E46
:102AC0000E94451F089520916A0130916B01409149
:102AD0006C0150916D01A0E0BEE40E94A51E28EE9D
:102AE00033E040E050E00E94831ECA01B90108951E
:102AF000862F642F482F50E0E091720198E0E99F03
:102B0000F00111244E175F075CF4A62FB0E0E091AE
:102B10007101F0E0AE17BF071CF4422F0C9477143C
:102B20000895EF92FF920F931F93CF93DF93DC01F1
:102B3000FA01E901202F4C175D0751F4462F6E2F43
:102B4000DF91CF911F910F91FF90EF900C9478152A
:102B5000C417D50720F4CA019927FE01EC01CF0163
:102B6000877099270FEF10E0780102C0F594E79481
:102B70008A95E2F78E2D93E0F695E7959A95E1F721
:102B800040917201649FA0011124E40FF51FBE0162
:102B90006770772702C0159507956A95E2F7902F21
:102BA000909533E0D695C7953A95E1F74C0F5D1FA8
:102BB000E417F50719F4892F8E2190E0213011F5E3
:102BC0009F012F5F3F4F6D917C911197E60FF71F8B
:102BD0006081862B80838FEFED91FC911197E20F3E
:102BE000F31F2417350720F480832F5F3F4FF4CF66
:102BF0008081982B9083DF91CF911F910F91FF904F
:102C0000EF90089521111DC09F012F5F3F4F6D91DF
:102C10007C911197E60FF71F682F609580818623BE
:102C20008083ED91FC911197E20FF31F2417350774
:102C300020F410822F5F3F4FF4CF9095808198232E
:102C4000D9CF2230C1F69F012F5F3F4F6D917C910C
:102C50001197E60FF71F608186278083ED91FC9125
:102C60001197E20FF31F80812417350728F4809510
:102C700080832F5F3F4FF2CF9827BCCF0F931F93D6
:102C8000CF93DF934217530739F4202FDF91CF9171
:102C90001F910F910C9478152417350720F4FA0131
:102CA000FF27A9019F01762F7770E0E8F0E002C0CE
:102CB000F595E7957A95E2F71E2F70917201749F52
:102CC000E001759FD00D1124669566956695C60F37
:102CD000D11D013091F424173507C8F1DC01ED91C5
:102CE000FC91EC0FFD1FA081A12BA083E09172014C
:102CF000CE0FD11D4F5F5F4FEECF011114C06E2F6D
:102D000060952417350718F1FC01A081B181AC0F43
:102D1000BD1FFC91F623FC93F0917201CF0FD11DE2
:102D20004F5F5F4FEECF023091F42417350778F0F4
:102D3000DC01ED91FC91EC0FFD1FA081A127A08388
:102D4000E0917201CE0FD11D4F5F5F4FEECFDF914B
:102D5000CF911F910F9108952F923F924F925F92C2
:102D60006F927F928F929F92AF92BF92CF92DF929B
:102D7000EF92FF920F931F93CF93DF9300D000D079
:102D8000CDB7DEB7742F302F0E2DC62ED12CE0918B
:102D9000720148E0E49FF0011124EC15FD05C4F038
:102DA000A72EB12C4091710150E04A155B0584F0CB
:102DB000A22FB0E0EA17FB075CF0E32EF12C4E15D2
:102DC0005F0534F062131BC09701A5010E943E16F7
:102DD0000F900F900F900F90DF91CF911F910F9157
:102DE000FF90EF90DF90CF90BF90AF909F908F902B
:102DF0007F906F905F904F903F902F900895731346
:102E000006C09D01A601672F0E949115E1CFAC1568
:102E1000BD050CF04EC0C6018A1B9B0B9C838B83A7
:102E20008FEFEA14FB040CF04BC095012E193F09FB
:102E300079019FEFEB81FC81EE15FF050CF044C09A
:102E40003B812C81FC82EB82E32EF22E11E0EE0C12
:102E5000FF1C47012B813C81821A930A220F331FEA
:102E60003A832983412C512C292E990F3308682E3F
:102E7000880F77088B819C81841595050CF4A8CF69
:102E8000402F6A2D8C2D0E94771497FC08C01130BA
:102E9000E9F4C60CD71CE981FA818E1A9F0A113019
:102EA000C1F4A20CB31C8E0C9F1CFFEF4F1A5F0ADB
:102EB000E1CFFD01EC19FD09FC83EB8381E0B1CF8B
:102EC000EA18FB0891E0B6CF10E0C1CFA20CB31C0A
:102ED000E2CFC60CD71CE7CF2F923F924F925F9262
:102EE0006F927F928F929F92AF92BF92CF92DF921A
:102EF000EF92FF920F931F93CF93DF93CDB7DEB77F
:102F00002A970FB6F894DEBF0FBECDBFDC01962F17
:102F1000977058E0591BE11006C0F901E00FF11F4E
:102F2000E4900F5F1F4FC11006C0F901E00FF11FC1
:102F3000C4900F5F1F4F8E2D8770EE2DE695E6959E
:102F4000E695882309F4ABC0442443944E0E66955D
:102F500066956695E62EF12CFC82EB82692E712C2B
:102F6000B301680F711D78876F838FEF90E0BC010C
:102F70000F8002C0759567950A94E2F7E52EF12C53
:102F8000FA82E98201C0880F5A95EAF7FF24F39488
:102F90004F1088C0A62EA82AEF80F88458E0E51AC2
:102FA000F1088FEF90E002C095958795EA94E2F7DB
:102FB000B62ED12C6C2D70E07E836D83242E312CA7
:102FC000512C71E0471A51086D2D70E0ED80FE80A4
:102FD0006E157F050CF094C0620D731D9091720107
:102FE000969FA001979F500D11246B817C81460F05
:102FF000571FED91FC911197E40FF51F9081692FF8
:103000006A216083B8016F5F7F4FF901E00FF11F04
:10301000C490ED91FC911197E40FF51FEC2CF12C6D
:10302000062C02C0F594E7940A94E2F7F080EF28AA
:10303000E0824201860E971EFA01E01BF10B8F0120
:103040007801E60EF71E4D915C911197EC2DF0E0A2
:10305000FA87E9876815790538F54E0D5F1DFA0185
:103060009081C984098001C0CC0C0A94EAF7C0821F
:10307000F901E60FF71FC490ED91FC911197EE0D49
:10308000FF1D4C2D50E0062C02C0559547950A9423
:10309000E2F75081452B40836F5F7F4FD1CF4E2E9B
:1030A00088E055CFA12C77CFEF81F8853897F0F4E1
:1030B000870101501109400F511F9B21FA01108116
:1030C000912B90834D915C911197E40EF51E4985EB
:1030D0005A85098002C0440F551F0A94E2F7F70190
:1030E0009081942B9083D3948B016ECFEF81F885E0
:1030F000389741F34E0D5F1DFA0190819823E1CF7F
:103100002A960FB6F894DEBF0FBECDBFDF91CF91E8
:103110001F910F91FF90EF90DF90CF90BF90AF90F5
:103120009F908F907F906F905F904F903F902F90E7
:103130000895DF92EF92FF920F931F93CF93DF9347
:10314000413049F170F0423009F440C0433009F495
:1031500081C0DF91CF911F910F91FF90EF90DF9091
:103160000895E0917701F091780120917201DF01DB
:10317000629FA00DB11D112430917101CF01239FD9
:10318000800D911D11249C012A173B0710F38C918F
:1031900081931D92F9CF80917701909178012091D0
:1031A000720130917101DC01239FA00DB11D11242A
:1031B000FD01269FE019F10911241196E817F9077E
:1031C00040F220812E9310823197F8CF562F5770FE
:1031D00066956695669570E010E028E030E0251B66
:1031E0003109E12FF0E08091710190E0E817F907D3
:1031F0000CF0AFCF80917201E0917701F0917801EE
:10320000189FE00DF11D1124DF01A60FB71F90E0FC
:1032100002978E0F9F1F8A179B0790F04C91052EE7
:1032200001C0440F0A94EAF71D92CC91D0E0022E1F
:1032300002C0D595C7950A94E2F74C2B4193EBCF8A
:103240008C91052E01C0880F0A94EAF71C928083A6
:103250001F5FC7CF062F0770F02E6695669566959F
:1032600070E0719561957109E12C42E050E028E031
:1032700030E0201B3109EE2DF0E08091710190E0EB
:10328000E817F9070CF065CFA09172018A2F90E042
:10329000FC013197EA9EE00DF11D1124A091770108
:1032A000B0917801EA0FFB1FDF01A60FB71F8A015B
:1032B000081B190B0E0F1F1F8C91A017B107A0F050
:1032C000C82FD0E00F2C02C0D595C7950A94E2F71D
:1032D0001C929E91892F022E01C0880F0A94EAF752
:1032E0008C2B80833197E8CF90E00F2C02C095950E
:1032F00087950A94E2F71C928083E394BCCF709385
:103300000D0160930C010895FC0175836483089599
:10331000CF92DF92EF920F931F93022FFC01248133
:103320003581F901329654916901FFEFCF1ADF0A16
:10333000F6017491F901E490F601C490051B079F12
:10334000800111240D5F1F4F0E946C171F910F9178
:10335000EF90DF90CF900895CF93DF93EC016B81D6
:10336000EC81FD8131967491462F50E020917101DE
:1033700030E0271B31094217530734F0649140E0D5
:10338000DF91CF910C949918E491E60FEC01EB8357
:10339000DF91CF9108951F93CF93DF93EC01162F08
:1033A0006A3079F130F5662341F1683081F16A8144
:1033B000EC81FD81E491262F30E08091720148E09C
:1033C000849FC00111248E1B91092817390774F1BD
:1033D0001A82CE010E94AC19212F4B816A81CE0145
:1033E0000E948819EC81FD818491EA81E80FEA83CB
:1033F00004C06D30C9F06E30D1F6DF91CF911F91CE
:1034000008951A82DF91CF911F910C94AC19EC8131
:10341000FD81E4916A816E1B6A8320E24B81DF911A
:10342000CF911F910C9488191A82E7CF212F4B81DD
:10343000D6CF0F931F93CF93DF938C01EB0169914C
:10344000662321F0C8010E94CB19F9CFDF91CF91FB
:103450001F910F910895FC0162834383B9010C947D
:10346000191A4F925F926F927F928F929F92AF92B2
:10347000BF92EF92FF920F931F93CF93DF93CDB73D
:10348000DEB7A0970FB6F894DEBF0FBECDBF8C019C
:103490004115510561057105C9F440E050E060E354
:1034A000A0960FB6F894DEBF0FBECDBFDF91CF91CF
:1034B0001F910F91FF90EF90BF90AF909F908F90D2
:1034C0007F906F905F904F900C94EA1ACE01019616
:1034D0007C01812C912C5401422E512C612C712C99
:1034E0009FEF891A990AA90AB90ACB01BA01A30167
:1034F00092010E94831E942F852FF70161937F0113
:10350000A901692F782F411551056105710541F712
:10351000F1E08F1A9108A108B108FE01E80DF91D2C
:103520006181862F90E00A9704F5605D40E050E0ED
:10353000C8010E94EA1A81149104A104B10441F760
:10354000A0960FB6F894DEBF0FBECDBFDF91CF912E
:103550001F910F91FF90EF90BF90AF909F908F9031
:103560007F906F905F904F900895695CDFCFCF920E
:10357000DF92EF92FF92CF93DF93EC016A017B0120
:103580002115310549F4642FDF91CF91FF90EF9021
:10359000DF90CF900C94CB192A30310581F477FF5E
:1035A0000DC040E050E06DE20E94EA1AF094E09411
:1035B000D094C094C11CD11CE11CF11C2AE0B701BD
:1035C000A601CE01DF91CF91FF90EF90DF90CF90D9
:1035D0000C94311A9A01462F50E060E070E00C9490
:1035E000B71A2115310519F4642F0C94CB190C94DA
:1035F000311A0F931F93FC0162834383A90160E09A
:1036000070E098011F910F910C94F11A80917F0145
:103610008F5F80937F0120917F0180917D0130E059
:1036200090E08217930714F410927F0120917F019C
:1036300080917D0130E0869590E08217930724F415
:1036400080917C01811103C01092B30004C080916D
:1036500081018093B30080917B01815080937B0135
:1036600080917B018F7349F480917C01882329F03C
:1036700080917C01815080937C0180917B0181113C
:1036800013C080917C01882339F090918101809151
:103690008001890F8093810180917E0190917D014D
:1036A000890F80937D010895089583EC8093B00085
:1036B00081E08093B1001092B300239A08950F9394
:1036C0002093800100937E01E82FF0E0E855F94F48
:1036D000E491E0937D0140937C01609381010F911F
:1036E00008950F9390E1699FB0011124680F711D37
:1036F000E42FF0E0EE0FFF1FE25FFE4F308181818B
:10370000422F50E00023D9F0E32FF82FAE2FA31B58
:103710008A2F90E08417950764F42491A0915E01AC
:10372000B0915F01A60FB71FA80FB91F2C93319658
:10373000EDCF605F7F4F01503E2F8F2FE3CF0F9172
:1037400008958F929F92AF92BF92CF92DF92EF92A5
:10375000FF920F931F93CF93DF93A4E9B1E068E04A
:1037600070E0082F10E04B01801A910A9D01235848
:103770003140790140E050E04830510509F44BC038
:10378000EC9138E0E39FF0011124E40FF51FE858B5
:10379000F64FA4909B01240F351F94E0220F331F96
:1037A0009A95E1F72E193F09ED01B12C23583140CC
:1037B000E98198E0E99FF0011124E40FF51FE85832
:1037C000F64F9491883029F10115110581F0C92E29
:1037D000D12C082C02C0D594C7940A94E2F7EA2DA4
:1037E000082E01C0EE0F0A94EAF7AC2CAE2AE09145
:1037F0005E01F0915F01EC0FFD1FE20FF31FA0824D
:10380000B3942196A92E90E1B912D2CF4F5F5F4FAA
:10381000B3CFA92EECCF5196685F7F4F603671050C
:1038200009F0A4CFDF91CF911F910F91FF90EF90FE
:10383000DF90CF90BF90AF909F908F9008952F9280
:103840003F924F925F926F927F928F929F92AF9230
:10385000BF92CF92DF92EF92FF920F931F93CF937D
:10386000DF93CDB7DEB728970FB6F894DEBF0FBE53
:10387000CDBF382F688780918201642F0E94631E1C
:10388000EC9C802D1124989F802D11248D83C00ED7
:10389000A22EA694A694A694B12C8C2C912CF12C3B
:1038A000422F50E05A834983832F90E0880F991F5D
:1038B000DC01A25FBE4FBC83AB83277088E090E041
:1038C0001C01221A3108B8854B2E512C440C551C72
:1038D000F201E25FFE4F2F01802F90E088159905DD
:1038E0000CF090C03C01F4E0660C771CFA95E1F70F
:1038F0006A0C7B1C1D8130E0D12C612F4D81641B33
:1039000070E06E157F050CF064C0AB014F5F5F4F38
:10391000E3E0440F551FEA95E1F7A981BA814A0F08
:103920005B1F403851050CF045C0A12FB0E0EB8182
:10393000FC81408151814A0F5B1FFA0144915885F7
:103940005523D1F1F2010190F081E02DFF83EE8348
:10395000EA0FFB1FE491660D771DA0915E01B09107
:103960005F01222359F150E0F0E06A0F7B1FDF0175
:10397000022E02C0B595A7950A94E2F73A2B30952E
:10398000DB01FC913F23DA01022E02C0B595A79519
:103990000A94E2F7DA2A3D29DB013C93022C01C0AC
:1039A000440F0A94EAF7D42E022C01C0EE0F0A94B9
:1039B000EAF73E2F1F5FA1CFEFEFCDCFA60FB71FC6
:1039C0003E2F30955C913523342B3C933E2FD42EE3
:1039D000F1CF2223A1F044E0880F991F4A95E1F727
:1039E0008A0D9B1D8E0D9F1DA0915E01B0915F0100
:1039F000A80FB91F30954C913423D32ADC920F5F66
:103A00001D836ACF28960FB6F894DEBF0FBECDBFD8
:103A1000DF91CF911F910F91FF90EF90DF90CF90AA
:103A2000BF90AF909F908F907F906F905F904F90DE
:103A30003F902F900895CF93DF93DC01C3E8D1E04E
:103A40009E0181E02339380759F0F90190E0818126
:103A500080839F5F71969C30D1F72F5F3F4FF1CFEE
:103A600082E0CF34D80761F0ED91FC911197CF013E
:103A7000019611969C938E93E491E88B6196F0CF1A
:103A8000DF91CF910895AF92BF92CF92DF92EF92E4
:103A9000FF920F931F93CF93DF93C0E049E0E42E92
:103AA000F12CD7E05CE2C52ED12C8EE591E00E948E
:103AB0003D1500915A0110915B0120915C013091FC
:103AC0005D01061717072807390708F081C08EE542
:103AD00091E00E943D15625E7F4F8F4F9F4F609334
:103AE0005A0170935B0180935C0190935D01CF5FFD
:103AF0000C2F10E0C03108F03DC060E08EE591E091
:103B00000E940515B12CA80148505109B701601B4E
:103B1000710B8B2D90E0841795070CF059C0FC01B8
:103B200034E0EE0FFF1F3A95E1F7860F971FD89FFD
:103B30009001D99F300D1124DF011C96CF0105960D
:103B400086010E1B1F0B200F311F8A179B0781F068
:103B5000F901E80FF91FE858F44FA49000915E01B5
:103B600010915F01080F191FF801A0820196EDCF97
:103B7000B394CFCFCC3308F040C060E08EE591E045
:103B80000E940515C8018F50904F24E0880F991F9F
:103B90002A95E1F740E050E020E030E0FA01E20F42
:103BA000F31FE858F44F6491E0915E01F0915F01DA
:103BB000E80FF91FE20FF31F65832F5F3F4F273098
:103BC000310561F74096495F5F4F4833510521F752
:103BD0008C2F90E0803891050CF467CF60E08EE583
:103BE00091E0DF91CF911F910F91FF90EF90DF90C7
:103BF000CF90BF90AF900C940515CC3341F400E00A
:103C000026EF4AE56FEF86E20E945F1BE1CFCE33DD
:103C1000F9F600E02AEF4AE56FEF8FE2F5CFE82FE3
:103C2000F0E0EE0FFF1FEC5CFE4F9081818110925F
:103C3000520210924F02E92FF82F83E891E09F0182
:103C400024533F4FE217F30771F0BF01645F7F4FCA
:103C5000DC01E617F70729F044914C933196519611
:103C6000F8CF0196EFCFF0935102E093500280E13C
:103C700080935701E0E4F2E080E6908195FD03C077
:103C8000809356010895885071978111F6CF88E08E
:103C9000F7CF90915202890F809352028091520285
:103CA000282F30E0283031056CF088508093520284
:103CB00080E592E00E941B1D80914F028F5F8093F0
:103CC0004F02ECCF0895991B79E004C0991F961715
:103CD00008F0961B881F7A95C9F78095089597FB81
:103CE000072E16F4009407D077FD09D00E94B01E6D
:103CF00007FC05D03EF4909581959F4F08957095EF
:103D000061957F4F0895A1E21A2EAA1BBB1BFD01EE
:103D10000DC0AA1FBB1FEE1FFF1FA217B307E407AA
:103D2000F50720F0A21BB30BE40BF50B661F771F02
:103D3000881F991F1A9469F76095709580959095E2
:103D40009B01AC01BD01CF0108950E94C41EA59F37
:103D5000900DB49F900DA49F800D911D1124089586
:103D6000AA1BBB1B51E107C0AA1FBB1FA617B707A1
:103D700010F0A61BB70B881F991F5A95A9F78095BD
:103D80009095BC01CD010895A29FB001B39FC001E1
:103D9000A39F700D811D1124911DB29F700D811D77
:103DA0001124911D08950E94E71E0C94C81F0E94C3
:103DB000C11F58F00E94BA1F40F029F45F3F29F05C
:103DC0000C94B11F51110C94FC1F0C94B71F0E944E
:103DD000D91F68F39923B1F3552391F3951B550B24
:103DE000BB27AA2762177307840738F09F5F5F4FCE
:103DF000220F331F441FAA1FA9F335D00E2E3AF00D
:103E0000E0E832D091505040E695001CCAF72BD024
:103E1000FE2F29D0660F771F881FBB1F2617370775
:103E20004807AB07B0E809F0BB0B802DBF01FF27A7
:103E300093585F4F3AF09E3F510578F00C94B11FB4
:103E40000C94FC1F5F3FE4F3983ED4F3869577957E
:103E50006795B795F7959F5FC9F7880F911D969560
:103E6000879597F90895E1E0660F771F881FBB1FBC
:103E7000621773078407BA0720F0621B730B840B69
:103E8000BA0BEE1F88F7E09508950E94E11F88F0B5
:103E90009F5798F0B92F9927B751B0F0E1F0660F0E
:103EA000771F881F991F1AF0BA95C9F714C0B1304F
:103EB00091F00E94FB1FB1E008950C94FB1F672F47
:103EC000782F8827B85F39F0B93FCCF3869577957E
:103ED0006795B395D9F73EF4909580957095619567
:103EE0007F4F8F4F9F4F0895E89409C097FB3EF492
:103EF00090958095709561957F4F8F4F9F4F992337
:103F0000A9F0F92F96E9BB279395F69587957795B4
:103F10006795B795F111F8CFFAF4BB0F11F460FF74
:103F20001BC06F5F7F4F8F4F9F4F16C0882311F0CC
:103F300096E911C0772321F09EE8872F762F05C0E0
:103F4000662371F096E8862F70E060E02AF09A957B
:103F5000660F771F881FDAF7880F9695879597F970
:103F6000089597F99F6780E870E060E008959FEFFB
:103F700080EC089500240A94161617061806090600
:103F8000089500240A9412161306140605060895CF
:103F9000092E0394000C11F4882352F0BB0F40F457
:103FA000BF2B11F460FF04C06F5F7F4F8F4F9F4F97
:103FB000089557FD9058440F551F59F05F3F71F019
:103FC0004795880F97FB991F61F09F3F79F0879580
:103FD0000895121613061406551FF2CF4695F1DF09
:103FE00008C0161617061806991FF1CF8695710599
:103FF000610508940895E894BB2766277727CB01CD
:1040000097F908950E9415200C94C81F0E94BA1FAA
:1040100038F00E94C11F20F0952311F00C94B11FBD
:104020000C94B71F11240C94FC1F0E94D91F70F32D
:10403000959FC1F3950F50E0551F629FF001729F4D
:10404000BB27F00DB11D639FAA27F00DB11DAA1F5C
:10405000649F6627B00DA11D661F829F2227B00DA9
:10406000A11D621F739FB00DA11D621F839FA00D34
:10407000611D221F749F3327A00D611D231F849F84
:10408000600D211D822F762F6A2F11249F575040DB
:104090009AF0F1F088234AF0EE0FFF1FBB1F661F56
:1040A000771F881F91505040A9F79E3F510580F01F
:1040B0000C94B11F0C94FC1F5F3FE4F3983ED4F3C3
:1040C000869577956795B795F795E7959F5FC1F7C3
:1040D000FE2B880F911D9695879597F908950F935C
:1040E0001F93CF93DF938230910510F482E090E02C
:1040F000E0915502F091560220E030E0A0E0B0E0FF
:10410000309719F140815181028113814817590775
:10411000C8F08417950769F4109731F012960C9344
:10412000129713961C9327C00093550210935602C2
:1041300022C02115310519F04217530718F49A01CE
:10414000BD01EF01DF01F801DBCF21153105F9F0E9
:10415000281B390B2430310580F48A819B8161153D
:10416000710521F0FB019383828304C09093560272
:1041700080935502FE01329644C0FE01E20FF31F08
:104180008193919322503109398328833AC0209139
:10419000530230915402232B41F4209102013091BB
:1041A0000301309354022093530220910001309177
:1041B00001012115310541F42DB73EB740910401AD
:1041C00050910501241B350BE0915302F0915402EC
:1041D000E217F307A0F42E1B3F0B2817390778F0DE
:1041E000AC014E5F5F4F2417350748F04E0F5F1F3D
:1041F00050935402409353028193919302C0E0E0A4
:10420000F0E0CF01DF91CF911F910F910895CF93EF
:10421000DF93009709F481C0FC0132971382128268
:10422000A0915502B0915602109781F420813181FE
:10423000820F931F2091530230915402281739079F
:1042400051F5F0935402E093530267C0ED0120E072
:1042500030E0CE17DF0740F44A815B819E014115B3
:104260005105F1F0EA01F5CFD383C283408151813A
:10427000840F951FC817D90759F488819981840F35
:10428000951F0296918380838A819B819383828389
:104290002115310529F4F0935602E09355023DC0F3
:1042A000E901FB83EA8349915991C40FD51FEC17AB
:1042B000FD0761F480819181840F951F0296E901C9
:1042C00099838883828193819B838A83E0E0F0E0F5
:1042D00012968D919C911397009719F0FD01DC01C6
:1042E000F7CF8D919C9111979D012E5F3F4F820FCB
:1042F000931F20915302309154022817390769F413
:10430000309729F4109256021092550202C013827F
:104310001282B0935402A0935302DF91CF9108957B
:104320008F929F92AF92BF92CF92DF92EF92FF92C5
:10433000CF93DF93EC01688179818A819B8161153C
:1043400071058105910521F464E279ED8BE597E033
:104350002DE133EF41E050E00E94EC2149015A0188
:104360009B01AC01A7EAB1E40E94A51E6B017C0190
:10437000ACEEB4EFA50194010E940E22DC01CB014A
:104380008C0D9D1DAE1DBF1DB7FF03C00197A10978
:10439000B04888839983AA83BB839F77DF91CF91AD
:1043A000FF90EF90DF90CF90BF90AF909F908F9055
:1043B00008950E949021089586E091E00E94902146
:1043C0000895A0E0B0E08093060190930701A093C8
:1043D0000801B09309010895052E97FB1EF400947F
:1043E0000E94032257FD07D00E94831E07FC03D0C2
:1043F0004EF40C94032250954095309521953F4FF3
:104400004F4F5F4F089590958095709561957F4FC0
:104410008F4F9F4F0895B7FF0C94A51E0E94A51EB5
:0A442000821B930B0895F894FFCF60
:10442A00000057022000010000001C0F1C0F0000B2
:10443A0078094809180948084008D806D809E0093F
:10444A00F00908091409680A600A580A36000009BE
:10445A0024004848100FB00B535441525400536380
:10446A006F72653A004865616C74683A000102042B
:04447A000707070029
:00000001FF
